{
  "_format": "hh-sol-artifact-1",
  "contractName": "MyEpicNFT",
  "sourceName": "contracts/MyEpicNFT.sol",
  "abi": [
    {
      "inputs": [],
      "stateMutability": "nonpayable",
      "type": "constructor"
    },
    {
      "anonymous": false,
      "inputs": [
        {
          "indexed": true,
          "internalType": "address",
          "name": "owner",
          "type": "address"
        },
        {
          "indexed": true,
          "internalType": "address",
          "name": "approved",
          "type": "address"
        },
        {
          "indexed": true,
          "internalType": "uint256",
          "name": "tokenId",
          "type": "uint256"
        }
      ],
      "name": "Approval",
      "type": "event"
    },
    {
      "anonymous": false,
      "inputs": [
        {
          "indexed": true,
          "internalType": "address",
          "name": "owner",
          "type": "address"
        },
        {
          "indexed": true,
          "internalType": "address",
          "name": "operator",
          "type": "address"
        },
        {
          "indexed": false,
          "internalType": "bool",
          "name": "approved",
          "type": "bool"
        }
      ],
      "name": "ApprovalForAll",
      "type": "event"
    },
    {
      "anonymous": false,
      "inputs": [
        {
          "indexed": false,
          "internalType": "address",
          "name": "sender",
          "type": "address"
        },
        {
          "indexed": false,
          "internalType": "uint256",
          "name": "tokenId",
          "type": "uint256"
        }
      ],
      "name": "NewEpicNFTMinted",
      "type": "event"
    },
    {
      "anonymous": false,
      "inputs": [
        {
          "indexed": true,
          "internalType": "address",
          "name": "from",
          "type": "address"
        },
        {
          "indexed": true,
          "internalType": "address",
          "name": "to",
          "type": "address"
        },
        {
          "indexed": true,
          "internalType": "uint256",
          "name": "tokenId",
          "type": "uint256"
        }
      ],
      "name": "Transfer",
      "type": "event"
    },
    {
      "inputs": [
        {
          "internalType": "address",
          "name": "to",
          "type": "address"
        },
        {
          "internalType": "uint256",
          "name": "tokenId",
          "type": "uint256"
        }
      ],
      "name": "approve",
      "outputs": [],
      "stateMutability": "nonpayable",
      "type": "function"
    },
    {
      "inputs": [
        {
          "internalType": "address",
          "name": "owner",
          "type": "address"
        }
      ],
      "name": "balanceOf",
      "outputs": [
        {
          "internalType": "uint256",
          "name": "",
          "type": "uint256"
        }
      ],
      "stateMutability": "view",
      "type": "function"
    },
    {
      "inputs": [
        {
          "internalType": "uint256",
          "name": "tokenId",
          "type": "uint256"
        }
      ],
      "name": "getApproved",
      "outputs": [
        {
          "internalType": "address",
          "name": "",
          "type": "address"
        }
      ],
      "stateMutability": "view",
      "type": "function"
    },
    {
      "inputs": [
        {
          "internalType": "address",
          "name": "owner",
          "type": "address"
        },
        {
          "internalType": "address",
          "name": "operator",
          "type": "address"
        }
      ],
      "name": "isApprovedForAll",
      "outputs": [
        {
          "internalType": "bool",
          "name": "",
          "type": "bool"
        }
      ],
      "stateMutability": "view",
      "type": "function"
    },
    {
      "inputs": [],
      "name": "makeAnEpicNFT",
      "outputs": [],
      "stateMutability": "nonpayable",
      "type": "function"
    },
    {
      "inputs": [],
      "name": "name",
      "outputs": [
        {
          "internalType": "string",
          "name": "",
          "type": "string"
        }
      ],
      "stateMutability": "view",
      "type": "function"
    },
    {
      "inputs": [
        {
          "internalType": "uint256",
          "name": "tokenId",
          "type": "uint256"
        }
      ],
      "name": "ownerOf",
      "outputs": [
        {
          "internalType": "address",
          "name": "",
          "type": "address"
        }
      ],
      "stateMutability": "view",
      "type": "function"
    },
    {
      "inputs": [
        {
          "internalType": "uint256",
          "name": "tokenId",
          "type": "uint256"
        }
      ],
      "name": "pickRandomColor",
      "outputs": [
        {
          "internalType": "string",
          "name": "",
          "type": "string"
        }
      ],
      "stateMutability": "view",
      "type": "function"
    },
    {
      "inputs": [
        {
          "internalType": "uint256",
          "name": "tokenId",
          "type": "uint256"
        }
      ],
      "name": "pickRandomFirstWord",
      "outputs": [
        {
          "internalType": "string",
          "name": "",
          "type": "string"
        }
      ],
      "stateMutability": "view",
      "type": "function"
    },
    {
      "inputs": [
        {
          "internalType": "uint256",
          "name": "tokenId",
          "type": "uint256"
        }
      ],
      "name": "pickRandomSecondWord",
      "outputs": [
        {
          "internalType": "string",
          "name": "",
          "type": "string"
        }
      ],
      "stateMutability": "view",
      "type": "function"
    },
    {
      "inputs": [
        {
          "internalType": "uint256",
          "name": "tokenId",
          "type": "uint256"
        }
      ],
      "name": "pickRandomThirdWord",
      "outputs": [
        {
          "internalType": "string",
          "name": "",
          "type": "string"
        }
      ],
      "stateMutability": "view",
      "type": "function"
    },
    {
      "inputs": [
        {
          "internalType": "address",
          "name": "from",
          "type": "address"
        },
        {
          "internalType": "address",
          "name": "to",
          "type": "address"
        },
        {
          "internalType": "uint256",
          "name": "tokenId",
          "type": "uint256"
        }
      ],
      "name": "safeTransferFrom",
      "outputs": [],
      "stateMutability": "nonpayable",
      "type": "function"
    },
    {
      "inputs": [
        {
          "internalType": "address",
          "name": "from",
          "type": "address"
        },
        {
          "internalType": "address",
          "name": "to",
          "type": "address"
        },
        {
          "internalType": "uint256",
          "name": "tokenId",
          "type": "uint256"
        },
        {
          "internalType": "bytes",
          "name": "_data",
          "type": "bytes"
        }
      ],
      "name": "safeTransferFrom",
      "outputs": [],
      "stateMutability": "nonpayable",
      "type": "function"
    },
    {
      "inputs": [
        {
          "internalType": "address",
          "name": "operator",
          "type": "address"
        },
        {
          "internalType": "bool",
          "name": "approved",
          "type": "bool"
        }
      ],
      "name": "setApprovalForAll",
      "outputs": [],
      "stateMutability": "nonpayable",
      "type": "function"
    },
    {
      "inputs": [
        {
          "internalType": "bytes4",
          "name": "interfaceId",
          "type": "bytes4"
        }
      ],
      "name": "supportsInterface",
      "outputs": [
        {
          "internalType": "bool",
          "name": "",
          "type": "bool"
        }
      ],
      "stateMutability": "view",
      "type": "function"
    },
    {
      "inputs": [],
      "name": "symbol",
      "outputs": [
        {
          "internalType": "string",
          "name": "",
          "type": "string"
        }
      ],
      "stateMutability": "view",
      "type": "function"
    },
    {
      "inputs": [
        {
          "internalType": "uint256",
          "name": "tokenId",
          "type": "uint256"
        }
      ],
      "name": "tokenURI",
      "outputs": [
        {
          "internalType": "string",
          "name": "",
          "type": "string"
        }
      ],
      "stateMutability": "view",
      "type": "function"
    },
    {
      "inputs": [
        {
          "internalType": "address",
          "name": "from",
          "type": "address"
        },
        {
          "internalType": "address",
          "name": "to",
          "type": "address"
        },
        {
          "internalType": "uint256",
          "name": "tokenId",
          "type": "uint256"
        }
      ],
      "name": "transferFrom",
      "outputs": [],
      "stateMutability": "nonpayable",
      "type": "function"
    }
  ],
  "bytecode": "0x608060405260405180610100016040528060d38152602001620045c260d39139600890805190602001906200003692919062000619565b506040518060800160405280605681526020016200469560569139600990805190602001906200006892919062000619565b5060405180606001604052806040518060400160405280600481526020017f424c41480000000000000000000000000000000000000000000000000000000081525081526020016040518060400160405280600481526020017f424c41480000000000000000000000000000000000000000000000000000000081525081526020016040518060400160405280600481526020017f424c414800000000000000000000000000000000000000000000000000000000815250815250600a90600362000135929190620006aa565b5060405180606001604052806040518060400160405280600481526020017f424c41480000000000000000000000000000000000000000000000000000000081525081526020016040518060400160405280600481526020017f424c41480000000000000000000000000000000000000000000000000000000081525081526020016040518060400160405280600481526020017f424c414800000000000000000000000000000000000000000000000000000000815250815250600b90600362000202929190620006aa565b5060405180606001604052806040518060400160405280600481526020017f424c41480000000000000000000000000000000000000000000000000000000081525081526020016040518060400160405280600481526020017f424c41480000000000000000000000000000000000000000000000000000000081525081526020016040518060400160405280600481526020017f424c414800000000000000000000000000000000000000000000000000000000815250815250600c906003620002cf929190620006aa565b506040518060c001604052806040518060400160405280600381526020017f726564000000000000000000000000000000000000000000000000000000000081525081526020016040518060400160405280600781526020017f233038433241380000000000000000000000000000000000000000000000000081525081526020016040518060400160405280600581526020017f626c61636b00000000000000000000000000000000000000000000000000000081525081526020016040518060400160405280600681526020017f79656c6c6f77000000000000000000000000000000000000000000000000000081525081526020016040518060400160405280600481526020017f626c75650000000000000000000000000000000000000000000000000000000081525081526020016040518060400160405280600581526020017f677265656e000000000000000000000000000000000000000000000000000000815250815250600d9060066200044d92919062000711565b503480156200045b57600080fd5b506040518060400160405280600981526020017f5371756172654e465400000000000000000000000000000000000000000000008152506040518060400160405280600681526020017f53515541524500000000000000000000000000000000000000000000000000008152508160009080519060200190620004e092919062000619565b508060019080519060200190620004f992919062000619565b505050620005476040518060400160405280601e81526020017f54686973206973206d79204e465420636f6e74726163742e20576f61682100008152506200054d60201b6200126e1760201c565b62000932565b620005ed8160405160240162000564919062000846565b6040516020818303038152906040527f41304fac000000000000000000000000000000000000000000000000000000007bffffffffffffffffffffffffffffffffffffffffffffffffffffffff19166020820180517bffffffffffffffffffffffffffffffffffffffffffffffffffffffff8381831617835250505050620005f060201b60201c565b50565b60008151905060006a636f6e736f6c652e6c6f679050602083016000808483855afa5050505050565b8280546200062790620008bc565b90600052602060002090601f0160209004810192826200064b576000855562000697565b82601f106200066657805160ff191683800117855562000697565b8280016001018555821562000697579182015b828111156200069657825182559160200191906001019062000679565b5b509050620006a6919062000778565b5090565b828054828255906000526020600020908101928215620006fe579160200282015b82811115620006fd578251829080519060200190620006ec92919062000619565b5091602001919060010190620006cb565b5b5090506200070d919062000797565b5090565b82805482825590600052602060002090810192821562000765579160200282015b82811115620007645782518290805190602001906200075392919062000619565b509160200191906001019062000732565b5b50905062000774919062000797565b5090565b5b808211156200079357600081600090555060010162000779565b5090565b5b80821115620007bb5760008181620007b19190620007bf565b5060010162000798565b5090565b508054620007cd90620008bc565b6000825580601f10620007e1575062000802565b601f01602090049060005260206000209081019062000801919062000778565b5b50565b600062000812826200086a565b6200081e818562000875565b93506200083081856020860162000886565b6200083b8162000921565b840191505092915050565b6000602082019050818103600083015262000862818462000805565b905092915050565b600081519050919050565b600082825260208201905092915050565b60005b83811015620008a657808201518184015260208101905062000889565b83811115620008b6576000848401525b50505050565b60006002820490506001821680620008d557607f821691505b60208210811415620008ec57620008eb620008f2565b5b50919050565b7f4e487b7100000000000000000000000000000000000000000000000000000000600052602260045260246000fd5b6000601f19601f8301169050919050565b613c8080620009426000396000f3fe608060405234801561001057600080fd5b50600436106101165760003560e01c806370a08231116100a2578063b88d4fde11610071578063b88d4fde14610317578063c575757a14610333578063c87b56dd14610363578063de9d132f14610393578063e985e9c51461039d57610116565b806370a082311461027d57806395d89b41146102ad578063a22cb465146102cb578063b187301f146102e757610116565b806323b872dd116100e957806323b872dd146101b55780632de38d68146101d157806342842e0e14610201578063514dc8c61461021d5780636352211e1461024d57610116565b806301ffc9a71461011b57806306fdde031461014b578063081812fc14610169578063095ea7b314610199575b600080fd5b6101356004803603810190610130919061269a565b6103cd565b6040516101429190612e26565b60405180910390f35b6101536104af565b6040516101609190612e41565b60405180910390f35b610183600480360381019061017e91906126ec565b610541565b6040516101909190612d96565b60405180910390f35b6101b360048036038101906101ae919061265e565b6105c6565b005b6101cf60048036038101906101ca9190612558565b6106de565b005b6101eb60048036038101906101e691906126ec565b61073e565b6040516101f89190612e41565b60405180910390f35b61021b60048036038101906102169190612558565b61085c565b005b610237600480360381019061023291906126ec565b61087c565b6040516102449190612e41565b60405180910390f35b610267600480360381019061026291906126ec565b61099a565b6040516102749190612d96565b60405180910390f35b610297600480360381019061029291906124f3565b610a4c565b6040516102a491906130c1565b60405180910390f35b6102b5610b04565b6040516102c29190612e41565b60405180910390f35b6102e560048036038101906102e09190612622565b610b96565b005b61030160048036038101906102fc91906126ec565b610bac565b60405161030e9190612e41565b60405180910390f35b610331600480360381019061032c91906125a7565b610cca565b005b61034d600480360381019061034891906126ec565b610d2c565b60405161035a9190612e41565b60405180910390f35b61037d600480360381019061037891906126ec565b610e4a565b60405161038a9190612e41565b60405180910390f35b61039b610f9c565b005b6103b760048036038101906103b2919061251c565b6111da565b6040516103c49190612e26565b60405180910390f35b60007f80ac58cd000000000000000000000000000000000000000000000000000000007bffffffffffffffffffffffffffffffffffffffffffffffffffffffff1916827bffffffffffffffffffffffffffffffffffffffffffffffffffffffff1916148061049857507f5b5e139f000000000000000000000000000000000000000000000000000000007bffffffffffffffffffffffffffffffffffffffffffffffffffffffff1916827bffffffffffffffffffffffffffffffffffffffffffffffffffffffff1916145b806104a857506104a782611307565b5b9050919050565b6060600080546104be90613355565b80601f01602080910402602001604051908101604052809291908181526020018280546104ea90613355565b80156105375780601f1061050c57610100808354040283529160200191610537565b820191906000526020600020905b81548152906001019060200180831161051a57829003601f168201915b5050505050905090565b600061054c82611371565b61058b576040517f08c379a000000000000000000000000000000000000000000000000000000000815260040161058290613041565b60405180910390fd5b6004600083815260200190815260200160002060009054906101000a900473ffffffffffffffffffffffffffffffffffffffff169050919050565b60006105d18261099a565b90508073ffffffffffffffffffffffffffffffffffffffff168373ffffffffffffffffffffffffffffffffffffffff161415610642576040517f08c379a000000000000000000000000000000000000000000000000000000000815260040161063990613081565b60405180910390fd5b8073ffffffffffffffffffffffffffffffffffffffff166106616113dd565b73ffffffffffffffffffffffffffffffffffffffff161480610690575061068f8161068a6113dd565b6111da565b5b6106cf576040517f08c379a00000000000000000000000000000000000000000000000000000000081526004016106c690612f81565b60405180910390fd5b6106d983836113e5565b505050565b6106ef6106e96113dd565b8261149e565b61072e576040517f08c379a0000000000000000000000000000000000000000000000000000000008152600401610725906130a1565b60405180910390fd5b61073983838361157c565b505050565b6060600061077261074e846117e3565b60405160200161075e9190612d30565b604051602081830303815290604052611990565b9050600a80549050816107859190613401565b9050600a81815481106107c1577f4e487b7100000000000000000000000000000000000000000000000000000000600052603260045260246000fd5b9060005260206000200180546107d690613355565b80601f016020809104026020016040519081016040528092919081815260200182805461080290613355565b801561084f5780601f106108245761010080835404028352916020019161084f565b820191906000526020600020905b81548152906001019060200180831161083257829003601f168201915b5050505050915050919050565b61087783838360405180602001604052806000815250610cca565b505050565b606060006108b061088c846117e3565b60405160200161089c9190612d74565b604051602081830303815290604052611990565b9050600d80549050816108c39190613401565b9050600d81815481106108ff577f4e487b7100000000000000000000000000000000000000000000000000000000600052603260045260246000fd5b90600052602060002001805461091490613355565b80601f016020809104026020016040519081016040528092919081815260200182805461094090613355565b801561098d5780601f106109625761010080835404028352916020019161098d565b820191906000526020600020905b81548152906001019060200180831161097057829003601f168201915b5050505050915050919050565b6000806002600084815260200190815260200160002060009054906101000a900473ffffffffffffffffffffffffffffffffffffffff169050600073ffffffffffffffffffffffffffffffffffffffff168173ffffffffffffffffffffffffffffffffffffffff161415610a43576040517f08c379a0000000000000000000000000000000000000000000000000000000008152600401610a3a90612fc1565b60405180910390fd5b80915050919050565b60008073ffffffffffffffffffffffffffffffffffffffff168273ffffffffffffffffffffffffffffffffffffffff161415610abd576040517f08c379a0000000000000000000000000000000000000000000000000000000008152600401610ab490612fa1565b60405180910390fd5b600360008373ffffffffffffffffffffffffffffffffffffffff1673ffffffffffffffffffffffffffffffffffffffff168152602001908152602001600020549050919050565b606060018054610b1390613355565b80601f0160208091040260200160405190810160405280929190818152602001828054610b3f90613355565b8015610b8c5780601f10610b6157610100808354040283529160200191610b8c565b820191906000526020600020905b815481529060010190602001808311610b6f57829003601f168201915b5050505050905090565b610ba8610ba16113dd565b83836119c3565b5050565b60606000610be0610bbc846117e3565b604051602001610bcc9190612cc9565b604051602081830303815290604052611990565b9050600b8054905081610bf39190613401565b9050600b8181548110610c2f577f4e487b7100000000000000000000000000000000000000000000000000000000600052603260045260246000fd5b906000526020600020018054610c4490613355565b80601f0160208091040260200160405190810160405280929190818152602001828054610c7090613355565b8015610cbd5780601f10610c9257610100808354040283529160200191610cbd565b820191906000526020600020905b815481529060010190602001808311610ca057829003601f168201915b5050505050915050919050565b610cdb610cd56113dd565b8361149e565b610d1a576040517f08c379a0000000000000000000000000000000000000000000000000000000008152600401610d11906130a1565b60405180910390fd5b610d2684848484611b30565b50505050565b60606000610d60610d3c846117e3565b604051602001610d4c9190612ca7565b604051602081830303815290604052611990565b9050600c8054905081610d739190613401565b9050600c8181548110610daf577f4e487b7100000000000000000000000000000000000000000000000000000000600052603260045260246000fd5b906000526020600020018054610dc490613355565b80601f0160208091040260200160405190810160405280929190818152602001828054610df090613355565b8015610e3d5780601f10610e1257610100808354040283529160200191610e3d565b820191906000526020600020905b815481529060010190602001808311610e2057829003601f168201915b5050505050915050919050565b6060610e5582611371565b610e94576040517f08c379a0000000000000000000000000000000000000000000000000000000008152600401610e8b90613021565b60405180910390fd5b6000600660008481526020019081526020016000208054610eb490613355565b80601f0160208091040260200160405190810160405280929190818152602001828054610ee090613355565b8015610f2d5780601f10610f0257610100808354040283529160200191610f2d565b820191906000526020600020905b815481529060010190602001808311610f1057829003601f168201915b505050505090506000610f3e611b8c565b9050600081511415610f54578192505050610f97565b600082511115610f89578082604051602001610f71929190612c09565b60405160208183030381529060405292505050610f97565b610f9284611ba3565b925050505b919050565b6000610fa86007611c4a565b90506032811115610fee576040517f08c379a0000000000000000000000000000000000000000000000000000000008152600401610fe590612ea1565b60405180910390fd5b6000610ff98261073e565b9050600061100683610bac565b9050600061101384610d2c565b9050600083838360405160200161102c93929190612c2d565b604051602081830303815290604052905060006110488661087c565b905060006008826009856040516020016110659493929190612c5e565b604051602081830303815290604052905060006110aa8461108584611c58565b604051602001611096929190612ceb565b604051602081830303815290604052611c58565b90506000816040516020016110bf9190612d52565b604051602081830303815290604052905061110e6040518060400160405280601581526020017f0a2d2d2d2d2d2d2d2d2d2d2d2d2d2d2d2d2d2d2d2d000000000000000000000081525061126e565b6111178161126e565b6111556040518060400160405280601581526020017f2d2d2d2d2d2d2d2d2d2d2d2d2d2d2d2d2d2d2d2d0a000000000000000000000081525061126e565b61115f338a611e16565b6111698982611e34565b6111736007611ea8565b611196604051806060016040528060258152602001613be6602591398a33611ebe565b7febb98688741ffa4c7589bf325de30cf7becb63de567842e1ccdb6cb949fdc82c338a6040516111c7929190612dfd565b60405180910390a1505050505050505050565b6000600560008473ffffffffffffffffffffffffffffffffffffffff1673ffffffffffffffffffffffffffffffffffffffff16815260200190815260200160002060008373ffffffffffffffffffffffffffffffffffffffff1673ffffffffffffffffffffffffffffffffffffffff16815260200190815260200160002060009054906101000a900460ff16905092915050565b611304816040516024016112829190612e41565b6040516020818303038152906040527f41304fac000000000000000000000000000000000000000000000000000000007bffffffffffffffffffffffffffffffffffffffffffffffffffffffff19166020820180517bffffffffffffffffffffffffffffffffffffffffffffffffffffffff8381831617835250505050611f5d565b50565b60007f01ffc9a7000000000000000000000000000000000000000000000000000000007bffffffffffffffffffffffffffffffffffffffffffffffffffffffff1916827bffffffffffffffffffffffffffffffffffffffffffffffffffffffff1916149050919050565b60008073ffffffffffffffffffffffffffffffffffffffff166002600084815260200190815260200160002060009054906101000a900473ffffffffffffffffffffffffffffffffffffffff1673ffffffffffffffffffffffffffffffffffffffff1614159050919050565b600033905090565b816004600083815260200190815260200160002060006101000a81548173ffffffffffffffffffffffffffffffffffffffff021916908373ffffffffffffffffffffffffffffffffffffffff160217905550808273ffffffffffffffffffffffffffffffffffffffff166114588361099a565b73ffffffffffffffffffffffffffffffffffffffff167f8c5be1e5ebec7d5bd14f71427d1e84f3dd0314c0f7b2291e5b200ac8c7c3b92560405160405180910390a45050565b60006114a982611371565b6114e8576040517f08c379a00000000000000000000000000000000000000000000000000000000081526004016114df90612f61565b60405180910390fd5b60006114f38361099a565b90508073ffffffffffffffffffffffffffffffffffffffff168473ffffffffffffffffffffffffffffffffffffffff16148061156257508373ffffffffffffffffffffffffffffffffffffffff1661154a84610541565b73ffffffffffffffffffffffffffffffffffffffff16145b80611573575061157281856111da565b5b91505092915050565b8273ffffffffffffffffffffffffffffffffffffffff1661159c8261099a565b73ffffffffffffffffffffffffffffffffffffffff16146115f2576040517f08c379a00000000000000000000000000000000000000000000000000000000081526004016115e990612ee1565b60405180910390fd5b600073ffffffffffffffffffffffffffffffffffffffff168273ffffffffffffffffffffffffffffffffffffffff161415611662576040517f08c379a000000000000000000000000000000000000000000000000000000000815260040161165990612f21565b60405180910390fd5b61166d838383611f86565b6116786000826113e5565b6001600360008573ffffffffffffffffffffffffffffffffffffffff1673ffffffffffffffffffffffffffffffffffffffff16815260200190815260200160002060008282546116c8919061326b565b925050819055506001600360008473ffffffffffffffffffffffffffffffffffffffff1673ffffffffffffffffffffffffffffffffffffffff168152602001908152602001600020600082825461171f919061318a565b92505081905550816002600083815260200190815260200160002060006101000a81548173ffffffffffffffffffffffffffffffffffffffff021916908373ffffffffffffffffffffffffffffffffffffffff160217905550808273ffffffffffffffffffffffffffffffffffffffff168473ffffffffffffffffffffffffffffffffffffffff167fddf252ad1be2c89b69c2b068fc378daa952ba7f163c4a11628f55a4df523b3ef60405160405180910390a46117de838383611f8b565b505050565b6060600082141561182b576040518060400160405280600181526020017f3000000000000000000000000000000000000000000000000000000000000000815250905061198b565b600082905060005b6000821461185d578080611846906133b8565b915050600a8261185691906131e0565b9150611833565b60008167ffffffffffffffff81111561189f577f4e487b7100000000000000000000000000000000000000000000000000000000600052604160045260246000fd5b6040519080825280601f01601f1916602001820160405280156118d15781602001600182028036833780820191505090505b5090505b60008514611984576001826118ea919061326b565b9150600a856118f99190613401565b6030611905919061318a565b60f81b818381518110611941577f4e487b7100000000000000000000000000000000000000000000000000000000600052603260045260246000fd5b60200101907effffffffffffffffffffffffffffffffffffffffffffffffffffffffffffff1916908160001a905350600a8561197d91906131e0565b94506118d5565b8093505050505b919050565b6000816040516020016119a39190612bf2565b6040516020818303038152906040528051906020012060001c9050919050565b8173ffffffffffffffffffffffffffffffffffffffff168373ffffffffffffffffffffffffffffffffffffffff161415611a32576040517f08c379a0000000000000000000000000000000000000000000000000000000008152600401611a2990612f41565b60405180910390fd5b80600560008573ffffffffffffffffffffffffffffffffffffffff1673ffffffffffffffffffffffffffffffffffffffff16815260200190815260200160002060008473ffffffffffffffffffffffffffffffffffffffff1673ffffffffffffffffffffffffffffffffffffffff16815260200190815260200160002060006101000a81548160ff0219169083151502179055508173ffffffffffffffffffffffffffffffffffffffff168373ffffffffffffffffffffffffffffffffffffffff167f17307eab39ab6107e8899845ad3d59bd9653f200f220920489ca2b5937696c3183604051611b239190612e26565b60405180910390a3505050565b611b3b84848461157c565b611b4784848484611f90565b611b86576040517f08c379a0000000000000000000000000000000000000000000000000000000008152600401611b7d90612ec1565b60405180910390fd5b50505050565b606060405180602001604052806000815250905090565b6060611bae82611371565b611bed576040517f08c379a0000000000000000000000000000000000000000000000000000000008152600401611be490613061565b60405180910390fd5b6000611bf7611b8c565b90506000815111611c175760405180602001604052806000815250611c42565b80611c21846117e3565b604051602001611c32929190612c09565b6040516020818303038152906040525b915050919050565b600081600001549050919050565b60606000825190506000811415611c815760405180602001604052806000815250915050611e11565b60006003600283611c92919061318a565b611c9c91906131e0565b6004611ca89190613211565b90506000602082611cb9919061318a565b67ffffffffffffffff811115611cf8577f4e487b7100000000000000000000000000000000000000000000000000000000600052604160045260246000fd5b6040519080825280601f01601f191660200182016040528015611d2a5781602001600182028036833780820191505090505b5090506000604051806060016040528060408152602001613c0b604091399050600181016020830160005b86811015611dce5760038101905062ffffff818a015116603f8160121c168401518060081b905060ff603f83600c1c1686015116810190508060081b905060ff603f8360061c1686015116810190508060081b905060ff603f831686015116810190508060e01b90508084526004840193505050611d55565b506003860660018114611de85760028114611df857611e03565b613d3d60f01b6002830352611e03565b603d60f81b60018303525b508484525050819450505050505b919050565b611e30828260405180602001604052806000815250612127565b5050565b611e3d82611371565b611e7c576040517f08c379a0000000000000000000000000000000000000000000000000000000008152600401611e7390612fe1565b60405180910390fd5b80600660008481526020019081526020016000209080519060200190611ea392919061237f565b505050565b6001816000016000828254019250508190555050565b611f58838383604051602401611ed693929190612e63565b6040516020818303038152906040527fe3849f79000000000000000000000000000000000000000000000000000000007bffffffffffffffffffffffffffffffffffffffffffffffffffffffff19166020820180517bffffffffffffffffffffffffffffffffffffffffffffffffffffffff8381831617835250505050611f5d565b505050565b60008151905060006a636f6e736f6c652e6c6f679050602083016000808483855afa5050505050565b505050565b505050565b6000611fb18473ffffffffffffffffffffffffffffffffffffffff16612182565b1561211a578373ffffffffffffffffffffffffffffffffffffffff1663150b7a02611fda6113dd565b8786866040518563ffffffff1660e01b8152600401611ffc9493929190612db1565b602060405180830381600087803b15801561201657600080fd5b505af192505050801561204757506040513d601f19601f8201168201806040525081019061204491906126c3565b60015b6120ca573d8060008114612077576040519150601f19603f3d011682016040523d82523d6000602084013e61207c565b606091505b506000815114156120c2576040517f08c379a00000000000000000000000000000000000000000000000000000000081526004016120b990612ec1565b60405180910390fd5b805181602001fd5b63150b7a0260e01b7bffffffffffffffffffffffffffffffffffffffffffffffffffffffff1916817bffffffffffffffffffffffffffffffffffffffffffffffffffffffff19161491505061211f565b600190505b949350505050565b61213183836121a5565b61213e6000848484611f90565b61217d576040517f08c379a000000000000000000000000000000000000000000000000000000000815260040161217490612ec1565b60405180910390fd5b505050565b6000808273ffffffffffffffffffffffffffffffffffffffff163b119050919050565b600073ffffffffffffffffffffffffffffffffffffffff168273ffffffffffffffffffffffffffffffffffffffff161415612215576040517f08c379a000000000000000000000000000000000000000000000000000000000815260040161220c90613001565b60405180910390fd5b61221e81611371565b1561225e576040517f08c379a000000000000000000000000000000000000000000000000000000000815260040161225590612f01565b60405180910390fd5b61226a60008383611f86565b6001600360008473ffffffffffffffffffffffffffffffffffffffff1673ffffffffffffffffffffffffffffffffffffffff16815260200190815260200160002060008282546122ba919061318a565b92505081905550816002600083815260200190815260200160002060006101000a81548173ffffffffffffffffffffffffffffffffffffffff021916908373ffffffffffffffffffffffffffffffffffffffff160217905550808273ffffffffffffffffffffffffffffffffffffffff16600073ffffffffffffffffffffffffffffffffffffffff167fddf252ad1be2c89b69c2b068fc378daa952ba7f163c4a11628f55a4df523b3ef60405160405180910390a461237b60008383611f8b565b5050565b82805461238b90613355565b90600052602060002090601f0160209004810192826123ad57600085556123f4565b82601f106123c657805160ff19168380011785556123f4565b828001600101855582156123f4579182015b828111156123f35782518255916020019190600101906123d8565b5b5090506124019190612405565b5090565b5b8082111561241e576000816000905550600101612406565b5090565b600061243561243084613101565b6130dc565b90508281526020810184848401111561244d57600080fd5b612458848285613313565b509392505050565b60008135905061246f81613b89565b92915050565b60008135905061248481613ba0565b92915050565b60008135905061249981613bb7565b92915050565b6000815190506124ae81613bb7565b92915050565b600082601f8301126124c557600080fd5b81356124d5848260208601612422565b91505092915050565b6000813590506124ed81613bce565b92915050565b60006020828403121561250557600080fd5b600061251384828501612460565b91505092915050565b6000806040838503121561252f57600080fd5b600061253d85828601612460565b925050602061254e85828601612460565b9150509250929050565b60008060006060848603121561256d57600080fd5b600061257b86828701612460565b935050602061258c86828701612460565b925050604061259d868287016124de565b9150509250925092565b600080600080608085870312156125bd57600080fd5b60006125cb87828801612460565b94505060206125dc87828801612460565b93505060406125ed878288016124de565b925050606085013567ffffffffffffffff81111561260a57600080fd5b612616878288016124b4565b91505092959194509250565b6000806040838503121561263557600080fd5b600061264385828601612460565b925050602061265485828601612475565b9150509250929050565b6000806040838503121561267157600080fd5b600061267f85828601612460565b9250506020612690858286016124de565b9150509250929050565b6000602082840312156126ac57600080fd5b60006126ba8482850161248a565b91505092915050565b6000602082840312156126d557600080fd5b60006126e38482850161249f565b91505092915050565b6000602082840312156126fe57600080fd5b600061270c848285016124de565b91505092915050565b61271e8161329f565b82525050565b61272d816132b1565b82525050565b600061273e82613147565b612748818561315d565b9350612758818560208601613322565b612761816134ee565b840191505092915050565b600061277782613152565b612781818561316e565b9350612791818560208601613322565b61279a816134ee565b840191505092915050565b60006127b082613152565b6127ba818561317f565b93506127ca818560208601613322565b80840191505092915050565b600081546127e381613355565b6127ed818661317f565b9450600182166000811461280857600181146128195761284c565b60ff1983168652818601935061284c565b61282285613132565b60005b8381101561284457815481890152600182019150602081019050612825565b838801955050505b50505092915050565b6000612862601b8361316e565b915061286d826134ff565b602082019050919050565b600061288560328361316e565b915061289082613528565b604082019050919050565b60006128a860258361316e565b91506128b382613577565b604082019050919050565b60006128cb601c8361316e565b91506128d6826135c6565b602082019050919050565b60006128ee600a8361317f565b91506128f9826135ef565b600a82019050919050565b600061291160248361316e565b915061291c82613618565b604082019050919050565b600061293460198361316e565b915061293f82613667565b602082019050919050565b600061295760638361317f565b915061296282613690565b606382019050919050565b600061297a600b8361317f565b91506129858261372b565b600b82019050919050565b600061299d602c8361316e565b91506129a882613754565b604082019050919050565b60006129c0600d8361317f565b91506129cb826137a3565b600d82019050919050565b60006129e360388361316e565b91506129ee826137cc565b604082019050919050565b6000612a06602a8361316e565b9150612a118261381b565b604082019050919050565b6000612a2960298361316e565b9150612a348261386a565b604082019050919050565b6000612a4c602e8361316e565b9150612a57826138b9565b604082019050919050565b6000612a6f60028361317f565b9150612a7a82613908565b600282019050919050565b6000612a9260208361316e565b9150612a9d82613931565b602082019050919050565b6000612ab560318361316e565b9150612ac08261395a565b604082019050919050565b6000612ad8602c8361316e565b9150612ae3826139a9565b604082019050919050565b6000612afb602f8361316e565b9150612b06826139f8565b604082019050919050565b6000612b1e600a8361317f565b9150612b2982613a47565b600a82019050919050565b6000612b4160218361316e565b9150612b4c82613a70565b604082019050919050565b6000612b64600a8361317f565b9150612b6f82613abf565b600a82019050919050565b6000612b87601d8361317f565b9150612b9282613ae8565b601d82019050919050565b6000612baa60318361316e565b9150612bb582613b11565b604082019050919050565b6000612bcd60058361317f565b9150612bd882613b60565b600582019050919050565b612bec81613309565b82525050565b6000612bfe82846127a5565b915081905092915050565b6000612c1582856127a5565b9150612c2182846127a5565b91508190509392505050565b6000612c3982866127a5565b9150612c4582856127a5565b9150612c5182846127a5565b9150819050949350505050565b6000612c6a82876127d6565b9150612c7682866127a5565b9150612c8282856127d6565b9150612c8e82846127a5565b9150612c99826129b3565b915081905095945050505050565b6000612cb2826128e1565b9150612cbe82846127a5565b915081905092915050565b6000612cd48261296d565b9150612ce082846127a5565b915081905092915050565b6000612cf682612b11565b9150612d0282856127a5565b9150612d0d8261294a565b9150612d1982846127a5565b9150612d2482612a62565b91508190509392505050565b6000612d3b82612b57565b9150612d4782846127a5565b915081905092915050565b6000612d5d82612b7a565b9150612d6982846127a5565b915081905092915050565b6000612d7f82612bc0565b9150612d8b82846127a5565b915081905092915050565b6000602082019050612dab6000830184612715565b92915050565b6000608082019050612dc66000830187612715565b612dd36020830186612715565b612de06040830185612be3565b8181036060830152612df28184612733565b905095945050505050565b6000604082019050612e126000830185612715565b612e1f6020830184612be3565b9392505050565b6000602082019050612e3b6000830184612724565b92915050565b60006020820190508181036000830152612e5b818461276c565b905092915050565b60006060820190508181036000830152612e7d818661276c565b9050612e8c6020830185612be3565b612e996040830184612715565b949350505050565b60006020820190508181036000830152612eba81612855565b9050919050565b60006020820190508181036000830152612eda81612878565b9050919050565b60006020820190508181036000830152612efa8161289b565b9050919050565b60006020820190508181036000830152612f1a816128be565b9050919050565b60006020820190508181036000830152612f3a81612904565b9050919050565b60006020820190508181036000830152612f5a81612927565b9050919050565b60006020820190508181036000830152612f7a81612990565b9050919050565b60006020820190508181036000830152612f9a816129d6565b9050919050565b60006020820190508181036000830152612fba816129f9565b9050919050565b60006020820190508181036000830152612fda81612a1c565b9050919050565b60006020820190508181036000830152612ffa81612a3f565b9050919050565b6000602082019050818103600083015261301a81612a85565b9050919050565b6000602082019050818103600083015261303a81612aa8565b9050919050565b6000602082019050818103600083015261305a81612acb565b9050919050565b6000602082019050818103600083015261307a81612aee565b9050919050565b6000602082019050818103600083015261309a81612b34565b9050919050565b600060208201905081810360008301526130ba81612b9d565b9050919050565b60006020820190506130d66000830184612be3565b92915050565b60006130e66130f7565b90506130f28282613387565b919050565b6000604051905090565b600067ffffffffffffffff82111561311c5761311b6134bf565b5b613125826134ee565b9050602081019050919050565b60008190508160005260206000209050919050565b600081519050919050565b600081519050919050565b600082825260208201905092915050565b600082825260208201905092915050565b600081905092915050565b600061319582613309565b91506131a083613309565b9250827fffffffffffffffffffffffffffffffffffffffffffffffffffffffffffffffff038211156131d5576131d4613432565b5b828201905092915050565b60006131eb82613309565b91506131f683613309565b92508261320657613205613461565b5b828204905092915050565b600061321c82613309565b915061322783613309565b9250817fffffffffffffffffffffffffffffffffffffffffffffffffffffffffffffffff04831182151516156132605761325f613432565b5b828202905092915050565b600061327682613309565b915061328183613309565b92508282101561329457613293613432565b5b828203905092915050565b60006132aa826132e9565b9050919050565b60008115159050919050565b60007fffffffff0000000000000000000000000000000000000000000000000000000082169050919050565b600073ffffffffffffffffffffffffffffffffffffffff82169050919050565b6000819050919050565b82818337600083830152505050565b60005b83811015613340578082015181840152602081019050613325565b8381111561334f576000848401525b50505050565b6000600282049050600182168061336d57607f821691505b6020821081141561338157613380613490565b5b50919050565b613390826134ee565b810181811067ffffffffffffffff821117156133af576133ae6134bf565b5b80604052505050565b60006133c382613309565b91507fffffffffffffffffffffffffffffffffffffffffffffffffffffffffffffffff8214156133f6576133f5613432565b5b600182019050919050565b600061340c82613309565b915061341783613309565b92508261342757613426613461565b5b828206905092915050565b7f4e487b7100000000000000000000000000000000000000000000000000000000600052601160045260246000fd5b7f4e487b7100000000000000000000000000000000000000000000000000000000600052601260045260246000fd5b7f4e487b7100000000000000000000000000000000000000000000000000000000600052602260045260246000fd5b7f4e487b7100000000000000000000000000000000000000000000000000000000600052604160045260246000fd5b6000601f19601f8301169050919050565b7f4f6e6c79203530204e4654732063616e206265206d696e7465642e0000000000600082015250565b7f4552433732313a207472616e7366657220746f206e6f6e20455243373231526560008201527f63656976657220696d706c656d656e7465720000000000000000000000000000602082015250565b7f4552433732313a207472616e736665722066726f6d20696e636f72726563742060008201527f6f776e6572000000000000000000000000000000000000000000000000000000602082015250565b7f4552433732313a20746f6b656e20616c7265616479206d696e74656400000000600082015250565b7f54484952445f574f524400000000000000000000000000000000000000000000600082015250565b7f4552433732313a207472616e7366657220746f20746865207a65726f2061646460008201527f7265737300000000000000000000000000000000000000000000000000000000602082015250565b7f4552433732313a20617070726f766520746f2063616c6c657200000000000000600082015250565b7f222c20226465736372697074696f6e223a20224120686967686c79206163636c60008201527f61696d656420636f6c6c656374696f6e206f6620737175617265732e222c202260208201527f696d616765223a2022646174613a696d6167652f7376672b786d6c3b6261736560408201527f36342c0000000000000000000000000000000000000000000000000000000000606082015250565b7f5345434f4e445f574f5244000000000000000000000000000000000000000000600082015250565b7f4552433732313a206f70657261746f7220717565727920666f72206e6f6e657860008201527f697374656e7420746f6b656e0000000000000000000000000000000000000000602082015250565b7f3c2f746578743e3c2f7376673e00000000000000000000000000000000000000600082015250565b7f4552433732313a20617070726f76652063616c6c6572206973206e6f74206f7760008201527f6e6572206e6f7220617070726f76656420666f7220616c6c0000000000000000602082015250565b7f4552433732313a2062616c616e636520717565727920666f7220746865207a6560008201527f726f206164647265737300000000000000000000000000000000000000000000602082015250565b7f4552433732313a206f776e657220717565727920666f72206e6f6e657869737460008201527f656e7420746f6b656e0000000000000000000000000000000000000000000000602082015250565b7f45524337323155524953746f726167653a2055524920736574206f66206e6f6e60008201527f6578697374656e7420746f6b656e000000000000000000000000000000000000602082015250565b7f227d000000000000000000000000000000000000000000000000000000000000600082015250565b7f4552433732313a206d696e7420746f20746865207a65726f2061646472657373600082015250565b7f45524337323155524953746f726167653a2055524920717565727920666f722060008201527f6e6f6e6578697374656e7420746f6b656e000000000000000000000000000000602082015250565b7f4552433732313a20617070726f76656420717565727920666f72206e6f6e657860008201527f697374656e7420746f6b656e0000000000000000000000000000000000000000602082015250565b7f4552433732314d657461646174613a2055524920717565727920666f72206e6f60008201527f6e6578697374656e7420746f6b656e0000000000000000000000000000000000602082015250565b7f7b226e616d65223a202200000000000000000000000000000000000000000000600082015250565b7f4552433732313a20617070726f76616c20746f2063757272656e74206f776e6560008201527f7200000000000000000000000000000000000000000000000000000000000000602082015250565b7f46495253545f574f524400000000000000000000000000000000000000000000600082015250565b7f646174613a6170706c69636174696f6e2f6a736f6e3b6261736536342c000000600082015250565b7f4552433732313a207472616e736665722063616c6c6572206973206e6f74206f60008201527f776e6572206e6f7220617070726f766564000000000000000000000000000000602082015250565b7f434f4c4f52000000000000000000000000000000000000000000000000000000600082015250565b613b928161329f565b8114613b9d57600080fd5b50565b613ba9816132b1565b8114613bb457600080fd5b50565b613bc0816132bd565b8114613bcb57600080fd5b50565b613bd781613309565b8114613be257600080fd5b5056fe416e204e465420772f20494420257320686173206265656e206d696e74656420746f2025734142434445464748494a4b4c4d4e4f505152535455565758595a6162636465666768696a6b6c6d6e6f707172737475767778797a303132333435363738392b2fa264697066735822122079cb2afface740cceb8110de062be21f266c99628efa2c42bd087ae4657bec3964736f6c634300080100333c73766720786d6c6e733d27687474703a2f2f7777772e77332e6f72672f323030302f73766727207072657365727665417370656374526174696f3d27784d696e594d696e206d656574272076696577426f783d273020302033353020333530273e3c7374796c653e2e62617365207b2066696c6c3a2077686974653b20666f6e742d66616d696c793a2073657269663b20666f6e742d73697a653a20323470783b207d3c2f7374796c653e3c726563742077696474683d273130302527206865696768743d2731303025272066696c6c3d27272f3e3c7465787420783d273530252720793d273530252720636c6173733d27626173652720646f6d696e616e742d626173656c696e653d276d6964646c652720746578742d616e63686f723d276d6964646c65273e",
  "linkReferences": {},
  "deployedLinkReferences": {}
}